:10000000EEC000001DC100001BC1000019C10000AE
:1000100017C1000015C1000013C1000011C100008C
:100020000FC100000DC100000BC1000009C100009C
:1000300007C1000005C1000003C1000001C10000AC
:10004000FFC00000FDC00000FBC00000F9C00000C0
:10005000F7C00000F5C00000F3C000000C94E008F9
:10006000EFC000000C94AA080C948108E9C00000BD
:10007000E7C00000E5C00000E3C00000E1C00000F0
:10008000DFC00000DDC00000DBC00000D9C0000000
:10009000D7C00000D5C00000D3C000000C942A09CE
:1000A000CFC00000CDC00000CBC00000C9C0000020
:1000B000C7C00000C5C00000C3C00000C1C0000030
:1000C000BFC00000BDC00000BBC00000B9C0000040
:1000D000B7C00000B5C00000B3C00000B1C0000050
:1000E000AFC0000000002200250028002B002E00D9
:1000F0003100340002010000050108010B01050573
:100100000505070508080808020202020A0A08088D
:1001100004040404010101010101010103030303BB
:1001200003030303040707070C0C0C0C0C0C0C0C4A
:100130000202020206060606060606060B0B0B0B5B
:100140000B0B0B0B01021020200808102040102080
:10015000408002010201080402010102040810208B
:100160004080804020100804020180040201804089
:1001700020100804020108040201010204081020F2
:100180004080010204081020408000000A0B020990
:100190000C0D0E0807030401000000000000000021
:1001A000000000000000000000000000000000004F
:1001B000000000000000121110000000000000000C
:1001C000000000000000000000000000000000002F
:1001D0000A20202020202020202000004D0A112469
:1001E0001FBECFEFD1E2DEBFCDBF00E00CBF24E0E9
:1001F000AAEAB2E001C01D92A037B207E1F712E00F
:10020000A0E0B2E0E6E8F5E200E00BBF02C0079034
:100210000D92AA3AB107D9F710E0CFEED0E000E096
:1002200006C021970109802FFE010E94A010CE3E3A
:10023000D10780E00807A9F70E94B20A0C94C11206
:10024000DFCEE1E7F3E0A089B18982E08C93A48559
:10025000B5851C92A685B7858FEC8C93108EA489EA
:10026000B58986E08C93A289B3898C9180618C9347
:10027000A289B3898C9188608C93A289B3898C916F
:1002800080688C930288F389E02D80818F7D808344
:1002900008958091200390911F03891B990B089565
:1002A0000895AF92BF92CF92DF92EF92FF920F9399
:1002B0001F93CF93DF936C017B018B01040F151FFC
:1002C000EB015E01AE18BF08C017D10759F0699164
:1002D000D601ED91FC910190F081E02DC6011995B8
:1002E000892B79F7C501DF91CF911F910F91FF9075
:1002F000EF90DF90CF90BF90AF900895FC014481C4
:1003000055816081718181E793E0CBCF0895089595
:100310000895FC01538D448D252F30E0842F90E00B
:10032000821B930B541710F0CF96089501970895F0
:10033000FC01918D828D981761F0A28DAE0FBF2FB9
:10034000B11D5D968C91928D9F5F9F73928F90E00F
:1003500008958FEF9FEF0895FC01918D828D98177E
:1003600031F0828DE80FF11D858D90E008958FEFBB
:100370009FEF0895FC01918D228D892F90E0805C84
:100380009F4F821B91098F739927089581E793E00E
:10039000F1DF21E0892B09F420E0822F0895FC0190
:1003A000A48DA80FB92FB11DA35ABF4F2C91848DD6
:1003B00090E001968F739927848FA689B7892C9333
:1003C000A089B1898C91837080648C93938D848D86
:1003D000981306C00288F389E02D80818F7D808389
:1003E0000895EF92FF920F931F93CF93DF93EC0149
:1003F00081E0888F9B8D8C8D98131AC0E889F989CC
:10040000808185FF15C09FB7F894EE89FF896083CE
:10041000E889F98980818370806480839FBF81E04F
:1004200090E0DF91CF911F910F91FF90EF90089591
:10043000F62E0B8D10E00F5F1F4F0F731127E02E6C
:100440008C8D8E110BC00FB607FCFACFE889F989A5
:10045000808185FFF5CFCE01A2DFF2CFEB8DEC0FCF
:10046000FD2FF11DE35AFF4FF0829FB7F8940B8FD9
:10047000EA89FB8980818062D0CFCF93DF93EC0142
:10048000888D8823B1F0AA89BB89E889F9898C9184
:1004900085FD03C0808186FD0CC00FB607FCF7CF39
:1004A0008C9185FFF2CF808185FFEDCFCE0177DF84
:1004B000EACFDF91CF91089580E090E0892B21F081
:1004C00065DF81110E94000080E090E0892B49F0F7
:1004D00080E090E0892B29F00E94000081110E94A9
:1004E000000080E090E0892B49F080E090E0892BCB
:1004F00029F00E94000081110E94000080E090E03D
:10050000892B49F080E090E0892B29F00E940000BF
:1005100081110C9400000895282F30E0F901E6576E
:10052000FE4F9491F901EC5BFE4F449122503F4FF6
:10053000F9012491222309F435C0992311F1915036
:100540009231F8F4E92FF0E08827E655FD4F8F4F00
:100550000C94A010DB02DF02BC02D302D702C1025E
:10056000E202E802EC02F202F602FA0200030403DD
:10057000C10208030E031203809180008F778093DD
:100580008000E22FF0E0EE0FFF1FEC51FF4FA5912E
:10059000B4918FB7F894EC91611148C040954E2307
:1005A0004C938FBF0895809180008F7DE8CF80911C
:1005B0008000877FE4CF84B58F7784BDE2CF84B598
:1005C0008F7DFBCF8091B0008F778093B000D9CF23
:1005D0008091B0008F7DF9CF809190008F778093CC
:1005E0009000CFCF809190008F7DF9CF80919000C7
:1005F000877FF5CF8091A0008F778093A000C1CF37
:100600008091A0008F7DF9CF8091A000877FF5CFEA
:10061000809120018F7780932001B3CF80912001BA
:100620008F7DF9CF80912001877FF5CF4E2BB8CFFA
:100630003FB7F8948091F3029091F402A091F502F3
:10064000B091F60226B5A89B05C02F3F19F0019680
:10065000A11DB11D3FBFBA2FA92F982F8827BC011C
:10066000CD01620F711D811D911D42E0660F771F44
:10067000881F991F4A95D1F708952FB7F894609174
:10068000EF027091F0028091F1029091F2022FBF7F
:1006900008952091CB02260F3327331F21323105D5
:1006A000ECF420914703FC0190E080E0243069F0F5
:1006B00082E00895A091CB022191AC0145555D4F98
:1006C000A40FB52FB11D2C930196861798F3809136
:1006D000CB02680F6093CB0280E0089581E008951B
:1006E0001092470381E0809346031092210361E05A
:1006F00084E112DF61E085E10FDFE9EBF0E080816A
:100700008E7F808380818D7F808388E48093B80092
:1007100085E48093BC000895CF93DF9391E090939C
:10072000AA028823A1F0C091B800D091BA008091AC
:10073000BC008A7B8093BC0060E084E1EDDE60E079
:1007400085E1EADECDDFD093BA00C093B800DF9137
:10075000CF9108958F929F92AF92BF92CF92DF92E6
:10076000EF92FF920F931F93CF93DF93D09170037B
:10077000D13208F0D0C0182FC0916F0359DF6B0140
:100780007C0180914703811168C082E08093470318
:10079000109346038FEF8093450310924403D09348
:1007A0004303AFE4B3E0E3E2F3E080E0D8138CC0AE
:1007B0001092220380912203CC0FC82BC0932203F6
:1007C00080912103813009F083C01092210330DF32
:1007D0006B017C01809122038093BB0080914903CF
:1007E00090914A03A0914B03B0914C03892B8A2B23
:1007F0008B2B99F01DDF0091490310914A03209142
:100800004B0330914C036C197D098E099F09061723
:1008100017072807390708F440C08091BC0083FD02
:10082000D9CF85EC8093BC0003DF6B017C01809104
:100830004703823009F44EC0809145038F3F09F48D
:100840006CC080914503803209F469C080914503F2
:10085000803309F466C084E024C0809149039091FC
:100860004A03A0914B03B0914C03892B8A2B8B2B0D
:1008700009F487CFDDDE8090490390904A03A09071
:100880004B03B0904C036C197D098E099F098616A5
:100890009706A806B90608F074CF809148033CDF9C
:1008A00085E010924E031092700310924D03DF9179
:1008B000CF911F910F91FF90EF90DF90CF90BF905D
:1008C000AF909F908F9008959D9191938F5F6ECF81
:1008D00085EEA8CF8091490390914A03A0914B03E4
:1008E000B0914C03892B8A2B8B2B09F4A0CFA0DE6F
:1008F0000091490310914A0320914B0330914C031E
:100900006C197D098E099F090617170728073907F3
:1009100008F08DCFC2CF81E0C4CF80E0C2CF82E0AB
:10092000C0CF83E0BECFE0911F0380912003E81782
:1009300030F4F0E0E150FD4F808190E008958FEFBA
:100940009FEF089590911F03809120032FEF3FEFB9
:10095000981748F4E92FF0E0E150FD4F208130E096
:100960009F5F90931F03C9010895CF92DF92EF928A
:10097000FF920F931F93CF93DF937C01CB018A01EA
:1009800020914D03222389F0EB016B01C40ED51E8B
:10099000CC15DD0561F06991D701ED91FC910190D5
:1009A000F081E02DC7011995F3CF642F72DEC801E5
:1009B000DF91CF911F910F91FF90EF90DF90CF903B
:1009C0000895CF93DF931F92CDB7DEB7698320914F
:1009D0004D032223F9F020917003203258F021E0DA
:1009E00030E0FC013383228390E080E00F90DF91C0
:1009F000CF91089580914E03E82FF0E0E15BFC4F2A
:100A0000998190838F5F80934E038093700381E080
:100A100090E0ECCF61E0CE0101963BDEF8CF90E0B4
:100A200080E008952F923F924F925F926F927F9253
:100A30008F929F92AF92BF92CF92DF92EF92FF92EE
:100A40000F931F93CF93DF936B017C018A01922E4A
:100A5000BC01A601420F511D611D711D80916704EB
:100A600090916804A0916904B0916A04D9E0841758
:100A70009507A607B70708F42FC18824839495EE3D
:100A8000292E25EC322EC701B6010E94F90E20E076
:100A900030E040E85AE30E94360F2B013C016091A0
:100AA00060047091610480916204909163040E94DB
:100AB000F90E20E030E040E05EE30E94360F9B013B
:100AC000AC01C301B2010E940C100E94741080910D
:100AD0006404B62EB82A80924D03B0926F03109230
:100AE0004E031092700380916B04823039F4992781
:100AF0008F2D7E2D6D2D84E594E063DF6C2D84E5D4
:100B000094E05FDF81E026DED82F8111E5C080917F
:100B1000660490E09C01215031092C213D21492D92
:100B200050E0821B930B4817590708F4CA01C82FDD
:100B3000813208F0C0E27CDD2B013C01809147034B
:100B4000811162C080924703809246038FEF8093A9
:100B50004503109244038C0F809343038092220339
:100B600060912203BB0CB62AB0922203809121032C
:100B7000813009F081C0109221035ADD2B013C0124
:100B8000809122038093BB008091490390914A0396
:100B9000A0914B03B0914C03892B8A2B8B2B99F09E
:100BA00047DD2091490330914A0340914B03509116
:100BB0004C036419750986099709261737074807F2
:100BC000590708F441C08091BC0083FDD9CF309211
:100BD000BC002EDD2B013C0180914703813009F4DC
:100BE0004EC0809144038C1708F06AC08091440382
:100BF000A3E2B3E0EFEFF2E0D81749F19D919193B2
:100C0000DF5FFACF9D2E3FCF8091490390914A0339
:100C1000A0914B03B0914C03892B8A2B8B2B09F4A9
:100C20008DCF06DD2091490330914A0340914B035B
:100C300050914C03641975098609970926173707DF
:100C40004807590708F07ACF8091480365DD109274
:100C50001F03D0932003702E58018A2D87198C17FB
:100C600088F580911F03D81769F184E594E06ADE66
:100C7000F50181935F01F1CF2092BC00AACF809152
:100C8000490390914A03A0914B03B0914C03892BE7
:100C90008A2B8B2B09F4A0CFCBDC20914903309118
:100CA0004A0340914B0350914C036419750986091E
:100CB0009709261737074807590708F08DCFC4CF83
:100CC0008C2F96CFCC0ED11CE11CF11C0C0F111DEA
:100CD000D92DDC1B09F096CF8D2FDF91CF911F917D
:100CE0000F91FF90EF90DF90CF90BF90AF909F90CB
:100CF0008F907F906F905F904F903F902F900895CE
:100D0000FC0101900020E9F73197AF01481B590B16
:100D1000BC0181E793E0C5CA89E392E0F1CF8F92ED
:100D20009F92AF92BF920F931F93CF93DF93CDB754
:100D3000DEB7A1970FB6F894DEBF0FBECDBF19A2E4
:100D4000423008F44AE08E010F5D1F4F842E912C33
:100D5000B12CA12CA50194010E94EA0FE62FB90144
:100D6000CA01EA30ECF4E05DD801EE938D01232B4B
:100D7000242B252B79F790E080E0109711F0CD011E
:100D8000BFDFA1960FB6F894DEBF0FBECDBFDF91D7
:100D9000CF911F910F91BF90AF909F908F9008952A
:100DA000E95CE2CFADCFCF93DF93FC01C081D1816D
:100DB000209761F08991882349F0082E000C990B47
:100DC0000E94A912FE0131978083F4CFDF91CF9169
:100DD00008950F931F93CF93DF93EC01888199813E
:100DE000009759F02A813B812617370730F081E0C0
:100DF000DF91CF911F910F9108958B016F5F7F4F0E
:100E00000E94CD11009759F0998388831B830A8330
:100E10002C813D81232B59F7FC011082E8CF80E023
:100E2000E7CFEF92FF920F931F93CF93DF9361155C
:100E3000710541F480E0DF91CF911F910F91FF90F8
:100E4000EF90089541155105A9F07B01EC010C814B
:100E50001D81040F151FB801BCDF882359F32881B9
:100E600039818C819D81B701820F931F0E94BA1234
:100E70001D830C8381E0DFCFCF93DF93EC0188816A
:100E80009981009711F00E944411198218821D82E5
:100E90001C821B821A82DF91CF9108950F931F93BA
:100EA000CF93DF931F921F92CDB7DEB78C0180E204
:100EB00089831A8241E050E0BE016F5F7F4FC80115
:100EC000B0DF811102C0C801D7DFC8010F900F90B9
:100ED000DF91CF911F910F910895EF92FF920F93A1
:100EE0001F93CF93DF93EC017B018A01BA0171DF7D
:100EF00081110AC0CE01C0DFCE01DF91CF911F91D9
:100F00000F91FF90EF9008951D830C83B7018881A6
:100F100099810E94BA12F0CFFB0101900020E9F7FD
:100F20003197AF01461B570BD8CF0F931F93CF9329
:100F3000DF9300D000D000D0CDB7DEB78C01862F74
:100F4000F80111821082138212821582148240E10C
:100F5000BE016F5F7F4F90E023D7BE016F5F7F4F71
:100F6000C801DADF29960FB6F894DEBF0FBECDBFF9
:100F7000DF91CF911F910F910895CF93DF93EC01F3
:100F8000FB018617970741F060817181611571053A
:100F900039F044815581A1DFCE01DF91CF910895D1
:100FA0006BDFFACFFC01118210821382128215824C
:100FB0001482E3CFFC011182108213821282158207
:100FC0001482FB0101900020E9F73197AF01461B25
:100FD000570B83CFFC0180819181009711F00C9415
:100FE00044110895AF92BF92CF92DF92EF92FF9299
:100FF0000F931F93CF93DF9300D000D01F921F92C7
:10100000CDB7DEB78C015B01C42ECCDFF12CD12C27
:1010100080E3E82EF501848195819601281B390B28
:10102000F216130628F51A8219821C821B821E8270
:101030001D82EF821886BE01695F7F4FCE01019647
:101040006BDFF8014481558160817181CE01019689
:10105000E8DE811103C0CE0101960EDFBE016F5F95
:101060007F4FC8018ADFCE010196B4DFF394D2CF5F
:10107000C80128960FB6F894DEBF0FBECDBFDF9132
:10108000CF911F910F91FF90EF90DF90CF90BF9085
:10109000AF90089585ED8093BC00809149039091B5
:1010A0004A03A0914B03B0914C030796A11DB11DBB
:1010B00023E0B695A795979587952A95D1F7209126
:1010C000BC0024FD03C010924703089540914903DA
:1010D00050914A0360914B0370914C03452B462B72
:1010E000472B69F30097A105B10541F02AE22A9543
:1010F000F1F700C00197A109B109E1CF8091480340
:101100000BCB1F920F920FB60F9211240BB60F92BA
:101110002F933F934F935F936F937F938F939F93FF
:10112000AF93BF93EF93FF9381E793E038D9FF919B
:10113000EF91BF91AF919F918F917F916F915F914F
:101140004F913F912F910F900BBE0F900FBE0F90BC
:101150001F9018951F920F920FB60F9211240BB685
:101160000F922F938F939F93EF93FF93E0918103BF
:10117000F09182038081E0918703F091880382FDE2
:101180001DC0908180918A038F5F8F7320918B03A4
:10119000821741F0E0918A03F0E0EF58FC4F958F01
:1011A00080938A03FF91EF919F918F912F910F90E0
:1011B0000BBE0F900FBE0F901F9018958081F2CF3D
:1011C0001F920F920FB60F9211242F933F938F937C
:1011D0009F93AF93BF938091EF029091F002A09103
:1011E000F102B091F2023091EE0223E0230F2D378D
:1011F00058F50196A11DB11D2093EE028093EF02D8
:101200009093F002A093F102B093F2028091F30266
:101210009091F402A091F502B091F6020196A11D01
:10122000B11D8093F3029093F402A093F502B09362
:10123000F602BF91AF919F918F913F912F910F90A7
:101240000FBE0F901F90189526E8230F0296A11D40
:10125000B11DD2CF1F920F920FB60F9211240BB671
:101260000F922F933F934F935F936F937F938F933F
:101270009F93AF93BF93EF93FF938091B900887FC3
:10128000803609F44CC008F03FC0883209F4A8C089
:1012900028F5803109F49CC0C8F4882309F4FAC009
:1012A000883009F495C0FF91EF91BF91AF919F9164
:1012B0008F917F916F915F914F913F912F910F90FF
:1012C0000BBE0F900FBE0F901F901895883109F438
:1012D00087C0803241F78093450314C0803409F4FD
:1012E0009CC040F48033B9F38833E9F6809345031A
:1012F00085ECAFC0803509F484C0883509F495C009
:10130000883489F6C7DECFCF883909F48CC038F528
:10131000883729F050F4883611F0803721F683E0C1
:10132000809347031092ED0257C0883809F47BC0C0
:10133000803919F0803809F0B6CF8091ED02803203
:1013400008F071C0E091ED0281E08E0F8093ED0214
:101350008091BB00F0E0E353FD4F80833DC0803BB4
:1013600039F0E0F4803A09F479C0883A09F09BCF6B
:1013700084E0809347031092CC021092CB02E0915C
:10138000F902F091FA0219958091CB0281110FC0F8
:1013900081E08093CB021092AB0209C0803C09F43B
:1013A000A7CF883C09F4A4CF883B09F07CCFE0911B
:1013B000CC0281E08E0F8093CC02F0E0E555FD4F2A
:1013C00080818093BB009091CC028091CB0229C098
:1013D000809122038093BB0085EC8093BC0063CF97
:1013E0009091440380914303981758F5E09144038A
:1013F00081E08E0F80934403F0E0ED5DFC4F80812F
:10140000E9CFE091440381E08E0F80934403809103
:10141000BB00F0E0ED5DFC4F808390914403809130
:1014200043039817C8F285E8D8CFE091440381E0E0
:101430008E0F809344038091BB00F0E0ED5DFC4F84
:1014400080838091460381115DCF81E080932103E9
:1014500084EA8093BC001092470325CF85EC8093EB
:10146000BC00109247038091ED02803230F4E0918D
:10147000ED02F0E0E353FD4F10826091ED0270E069
:10148000E091F702F091F8028DEC92E0199510923C
:10149000ED0209CF1092450335CFE1E7F3E0138267
:1014A000128288EE93E0A0E0B0E084839583A68367
:1014B000B7832AE032E03183208325EC30E03587A2
:1014C000248724EC30E03787268720EC30E0318B0E
:1014D000208B21EC30E0338B228B22EC30E0358BFB
:1014E000248B26EC30E0378B268B118E128E138ED8
:1014F000148EEEE0F4E016821782108611861286B2
:1015000013861486158616861786108A118A128A03
:10151000138A148A158AE4E5F4E013821282848324
:101520009583A683B7838CE192E091838083E0E684
:10153000F4E080E5848380E092E0A0E0B0E0808386
:101540009183A283B38384E0858380E8868380E0EF
:1015500090E0A4E0B0E087839087A187B28782E023
:1015600083870895CF93DF93CDB7DEB7C354D109F6
:101570000FB6F894DEBF0FBECDBF789484B58260FD
:1015800084BD84B5816084BD85B5826085BD85B527
:10159000816085BD80916E00816080936E001092A5
:1015A0008100809181008260809381008091810020
:1015B00081608093810080918000816080938000B1
:1015C0008091B10084608093B1008091B00081600F
:1015D0008093B0008091910082608093910080910F
:1015E0009100816080939100809190008160809350
:1015F00090008091A10082608093A1008091A10061
:1016000081608093A1008091A00081608093A00000
:10161000809121018260809321018091210181606C
:10162000809321018091200181608093200180912D
:101630007A00846080937A0080917A00826080933F
:101640007A0080917A00816080937A0080917A009C
:10165000806880937A001092C1001092500410921A
:1016600051041092520410925304109210041092DC
:10167000110410921204109213040E943D035B01A6
:101680006C012B013C0128EB420E2BE0521E611C29
:10169000711C0E943D036A157B058C059D0528F091
:1016A0004616570668067906A0F70E9418032B0114
:1016B0003C0140EDA42E47E0B42EC12CD12C0E9459
:1016C00018036419750986099709683E73408105F6
:1016D0009105A8F331E0A31AB108C108D10848EE7A
:1016E000440E43E0541E611C711CA114B104C104DA
:1016F000D10429F70E9421010E943D036093100448
:101700007093110480931204909313048AE292E080
:1017100049DB0E943D035B016C012B013C016AE047
:10172000460E511C611C711C0E943D036A157B050D
:101730008C059D0528F04616570668067906A0F721
:1017400011E0109324040E94210110921F031092B3
:1017500020030E94700387E891E09093FA0280933F
:10176000F90288E891E09093F8028093F7028CE008
:101770008093B8008091640410934D0380936F03AD
:1017800010924E031092700380916B04823021F40A
:1017900060E084E594E015D960E084E594E011D937
:1017A00081E00E94AA036BE372E0CE01CA9602DCDC
:1017B00021E0AE014F5F5F4F60E070E081E090E0BC
:1017C00031D9811101C0998022E0AE014F5F5F4F96
:1017D00060E070E081E090E025D9811105C0E980EA
:1017E000FA80FE24EF24FE2424E0AE014F5F5F4F19
:1017F00060E070E081E090E015D981111BC0FE012E
:101800003196CE010596219124964CAD5DAD6EAD1D
:101810007FAD24974424542E652E762EB301A20169
:10182000422B24964CAF5DAF6EAF7FAF24978E17DF
:101830009F0749F72AE0AE014F5F5F4F60E070E01D
:1018400081E090E0EFD8882309F42DC26CE372E0C8
:10185000CE018296AFDB0FB6F894DEBF0FBECDBFD0
:101860008AAD9BAD009709F455C26AA17BA16115B1
:10187000710509F44EC24CAD5DAD2EA13FA14217DA
:10188000530708F446C276D68EA19FA19FAF8EAFB4
:101890001FA21EA2CE0182969DDB88E492E082DA2E
:1018A00060916704709168048091690490916A0462
:1018B0004AE035DA31DA80E592E074DA609160046A
:1018C00070916104809162049091630492D220E04F
:1018D00030E040E05EE3CAD29B01AC0160E070E022
:1018E00080E892E499D300D480916404682B70E07E
:1018F00090E080E04AE013DA0FDA8CE592E052DA09
:10190000692D70E090E080E040E109DA05DA84E6D4
:1019100092E048DAB70190E080E040E100DAFCD9DB
:101920008CE692E03FDA40E124966CAD7DAD8EAD61
:101930009FAD2497F4D9F0D984E792E033DACE0151
:10194000CA960E947E01E8D98CE792E0D9D9E4D901
:1019500000ED11E0F8016491662341F081E793E026
:101960000E94F1010F5F1F4F892BA1F710E0612F3B
:10197000CE010196DADA42E0BE016F5F7F4FCE0101
:10198000829630DBBE016E5D7F4FCE0188960ADB0A
:10199000CE01889683DABC01CE018E9603DBCE01A0
:1019A000889618DBCE01829615DBCE01019612DBFC
:1019B000CE018E96F8D9CE018E960E947E01CE0180
:1019C0008E9608DB1F5F103291F6A6D9C12CD12C60
:1019D0007601E3941BA21AA21DA21CA21FA21EA2A2
:1019E00020E1AE014F5F5F4FC701B601B8D1BE0124
:1019F0006F5F7F4FCE0182968FDA48E0BE016E5D49
:101A00007F4FCE010196EEDABE016F5F7F4FCE01B0
:101A10008896C8DACE01889641DABC01CE01C49618
:101A2000C1DACE018896D6DACE010196D3DACE019C
:101A30008296D0DACE01C496B6D9CE01C4960E9461
:101A40007E012601370110E021E0AE014F5F5F4FBC
:101A5000C301B2010E9412056981811160E0CE01CB
:101A6000019663DA42E0BE016F5F7F4FCE0182963E
:101A7000B9DABE016E5D7F4FCE01889693DACE0152
:101A800088960CDABC01CE018E968CDACE0188964F
:101A9000A1DACE0182969EDACE0101969BDACE01C2
:101AA0008E9681D9CE018E960E947E01CE018E96B1
:101AB00091DA1F5FFFEF4F1A5F0A6F0A7F0A103239
:101AC00009F0C2CF29D9CE01C49684DA20E2C20E31
:101AD000D11CE11CF11CC114D10432E0E306F10475
:101AE00009F078CFCE01CA9675DA84EF482E5524D6
:101AF0005394612C712C0E943D03672B682B692B3A
:101B000009F419C10E943D030091FB021091FC02EF
:101B10002091FD023091FE02601771078207930742
:101B200008F414C10091FB021091FC022091FD0207
:101B30003091FE026B017C01C01AD10AE20AF30A5D
:101B4000970186010A3F11052105310508F4FBC004
:101B50006093FB027093FC028093FD029093FE025F
:101B600040921C0450921D0460921E0470921F0447
:101B70001092200410922104109222041092230447
:101B80008091140490911504A0911604B09117044B
:101B90008093180490931904A0931A04B0931B0423
:101BA0000E943D03609314047093150480931604FF
:101BB000909317040E943D036093100470931104E6
:101BC00080931204909313040E943D036B017C01E7
:101BD00086E992E0E7D84AE061E070E080E090E0DA
:101BE0009ED88DE992E0DED84AE0C701B60197D8C9
:101BF0008FE992E0D7D88091140490911504A091B8
:101C00001604B0911704A7019601281B390B4A0B43
:101C10005B0BCA01B9014AE082D88FE992E0C2D8D1
:101C2000609114047091150480911604909117042A
:101C3000009118041091190420911A0430911B048A
:101C4000601B710B820B930B4AE069D881EA92E02A
:101C5000A9D80E943D034AE062D883EA92E050D8B6
:101C60005BD80E943D036B017C014B015C0132E0BB
:101C7000830E911CA11CB11C0E943D036C157D05B7
:101C80008E059F0528F086169706A806B906A0F7C8
:101C90000E943D036093140470931504809316040E
:101CA0009093170450C06BE372E0CE01889682D9FE
:101CB000BE016F5F7F4F6B015E017BE0A70EB11C21
:101CC000F60161916F01CE0182962FD94EA15FA1DD
:101CD0006AA17BA1CE018896A4D8CE0182967AD93A
:101CE000CA14DB0469F788A599A59BA38AA38AA5D2
:101CF0009BA59DA38CA38CA59DA59FA38EA319A690
:101D000018A61BA61AA61DA61CA6CE01889662D9E7
:101D1000A2CDBAD28AA19BA19BAF8AAF8CA19DA173
:101D20009DAF8CAF8EA19FA19FAF8EAF1BA21AA2B9
:101D30001DA21CA2ADCD0E943D036230710581053C
:101D4000910508F0DFCE0E945C02D5CE6093FB02C5
:101D50007093FC028093FD029093FE02E3CEBB27BA
:101D6000FA01A62F6217710581059105330B30FB2F
:101D700066F0AA27660F771F881F991FAA1FA21750
:101D800010F0A21B63953850A9F7A05DAA3308F0A4
:101D9000A95DA19336F7B111B1931082CA0119C0A0
:101DA000BB27FB015527AA27880F991FAA1FA41735
:101DB00010F0A41B83955051B9F7A05DAA3308F029
:101DC000A95DA193009779F7B111B1931192CB015D
:101DD00000C0DC01FC01672F71917723E1F7329796
:101DE00004C07C916D9370836291AE17BF07C8F3F6
:101DF0000895E89409C097FB3EF4909580957095FE
:101E000061957F4F8F4F9F4F9923A9F0F92F96E946
:101E1000BB279395F695879577956795B795F111BB
:101E2000F8CFFAF4BB0F11F460FF1BC06F5F7F4F58
:101E30008F4F9F4F16C0882311F096E911C077236A
:101E400021F09EE8872F762F05C0662371F096E873
:101E5000862F70E060E02AF09A95660F771F881F42
:101E6000DAF7880F9695879597F908950BD078C083
:101E700069D028F06ED018F0952309F05AC05FC0E1
:101E80001124A2C07ED0A0F3959FD1F3950F50E00E
:101E9000551F629FF001729FBB27F00DB11D639F1C
:101EA000AA27F00DB11DAA1F649F6627B00DA11DC2
:101EB000661F829F2227B00DA11D621F739FB00D68
:101EC000A11D621F839FA00D611D221F749F3327D8
:101ED000A00D611D231F849F600D211D822F762F71
:101EE0006A2F11249F5750408AF0E1F088234AF06E
:101EF000EE0FFF1FBB1F661F771F881F91505040BA
:101F0000A9F79E3F510570F014C05EC05F3FECF32F
:101F1000983EDCF3869577956795B795F795E795A5
:101F20009F5FC1F7FE2B880F911D9695879597F9B6
:101F3000089597F99F6780E870E060E008959FEF4B
:101F400080EC089500240A94161617061806090650
:101F5000089500240A94121613061406050608951F
:101F6000092E0394000C11F4882352F0BB0F40F4A7
:101F7000BF2B11F460FF04C06F5F7F4F8F4F9F4FE7
:101F8000089557FD9058440F551F59F05F3F71F069
:101F90004795880F97FB991F61F09F3F79F08795D0
:101FA0000895121613061406551FF2CF4695F1DF59
:101FB00008C0161617061806991FF1CF86957105E9
:101FC000610508940895E894BB2766277727CB011D
:101FD00097F90895A1E21A2EAA1BBB1BFD010DC0A3
:101FE000AA1FBB1FEE1FFF1FA217B307E407F507C9
:101FF00020F0A21BB30BE40BF50B661F771F881FA5
:10200000991F1A9469F760957095809590959B013A
:10201000AC01BD01CF0108950CD0A2CF9ADF40F0F2
:1020200091DF30F021F45F3F19F083CF5111CCCF15
:1020300086CFA7DF98F39923C9F35523B1F3951BF6
:10204000550BBB27AA2762177307840738F09F5FD9
:102050005F4F220F331F441FAA1FA9F333D00E2E48
:102060003AF0E0E830D091505040E695001CCAF7B5
:1020700029D0FE2F27D0660F771F881FBB1F26177A
:1020800037074807AB07B0E809F0BB0B802DBF014D
:10209000FF2793585F4F2AF09E3F510568F049CFC4
:1020A00093CF5F3FECF3983EDCF386957795679589
:1020B000B795F7959F5FC9F7880F911D96958795FE
:1020C00097F90895E1E0660F771F881FBB1F62171D
:1020D00073078407BA0720F0621B730B840BBA0BDB
:1020E000EE1F88F7E095089554DF88F09F5790F031
:1020F000B92F9927B751A0F0D1F0660F771F881F2D
:10210000991F1AF0BA95C9F712C0B13081F05BDFA0
:10211000B1E0089558CF672F782F8827B85F39F03E
:10212000B93FCCF3869577956795B395D9F73EF48B
:1021300090958095709561957F4F8F4F9F4F089533
:10214000EE0FFF1F881F8BBF0790F691E02D1994AB
:102150000F931F93CF93DF938230910510F482E0A9
:1021600090E0E0916E04F0916F0430E020E0B0E088
:10217000A0E0309799F42115310509F44AC0281BD5
:10218000390B24303105D8F58A819B8161157105A1
:1021900089F1FB0193838283FE0111C0408151814B
:1021A0000281138148175907E0F04817590799F43D
:1021B000109761F012960C93129713961C93329617
:1021C000CF01DF91CF911F910F91089500936E047D
:1021D00010936F04F4CF2115310551F042175307C6
:1021E00038F0A901DB019A01BD01DF01F801C1CF7F
:1021F000EF01F9CF90936F0480936E04CDCFFE0171
:10220000E20FF31F81939193225031093983288380
:10221000D7CF20916C0430916D04232B41F4209191
:1022200002023091030230936D0420936C042091DC
:102230000002309101022115310541F42DB73EB75E
:102240004091040250910502241B350BE0916C046F
:10225000F0916D04E217F307A0F42E1B3F0B281733
:10226000390778F0AC014E5F5F4F2417350748F00F
:102270004E0F5F1F50936D0440936C0481939193B4
:102280009FCFF0E0E0E09CCFCF93DF930097E9F0A1
:10229000FC01329713821282A0916E04B0916F04F8
:1022A000ED0130E020E01097A1F420813181820F10
:1022B000931F20916C0430916D042817390709F0A1
:1022C00061C0F0936D04E0936C04DF91CF910895A9
:1022D000EA01CE17DF07E8F54A815B819E014115CF
:1022E0005105B1F7E901FB83EA8349915991C40F84
:1022F000D51FEC17FD0761F4808191810296840F50
:10230000951FE90199838883828193819B838A83C6
:10231000F0E0E0E012968D919C9113970097B9F54B
:102320002D913C911197CD010296820F931F209120
:102330006C0430916D042817390739F6309751F540
:1023400010926F0410926E04B0936D04A0936C040D
:10235000BCCFD383C28340815181840F951FC8179E
:10236000D90761F44E5F5F4F88819981480F591FEB
:10237000518340838A819B81938382832115310518
:1023800009F0B0CFF0936F04E0936E049ECFFD018F
:10239000DC01C0CF13821282D7CF4F925F926F922F
:1023A0007F928F929F92AF92BF92CF92DF92EF92E5
:1023B000FF920F931F93CF93DF938C01009791F4BB
:1023C000CB01DF91CF911F910F91FF90EF90DF90A4
:1023D000CF90BF90AF909F908F907F906F905F90C5
:1023E0004F90B6CEFC01E60FF71F9C012250310939
:1023F000E217F30708F4AAC0D901CD91DC91119737
:10240000C617D70718F1C530D10570F0CE01049773
:102410008617970748F0C61BD70B2297C193D19315
:102420006D937C93CF0130DFC801DF91CF911F9175
:102430000F91FF90EF90DF90CF90BF90AF909F9063
:102440008F907F906F905F904F9008955B01AC1AD2
:10245000BD0A4C018C0E9D1EA0916E04B0916F04BC
:10246000512C412CF12CE12C109731F580916C040A
:1024700090916D048815990509F05CC046165706C1
:1024800008F058C08091000290910102009741F439
:102490008DB79EB74091040250910502841B950BA5
:1024A000E817F90708F052C0F0936D04E0936C044C
:1024B000F90171836083B8CF8D919C911197129629
:1024C0006C90129713967C901397A815B90559F53F
:1024D0006C0142E0C40ED11CCA14DB0420F1AC0133
:1024E0004A195B09DA011296159780F062827382AD
:1024F00051834083D9016D937C93E114F10471F011
:10250000D7011396FC93EE9312978ECF22968C0FE1
:102510009D1FF90191838083F301EFCFF0936F0446
:10252000E0936E0481CF4816590608F42C017D0112
:10253000D3019ACFCB010CDE7C01009739F0AE01BC
:10254000B8010FD0C801A0DE87016ECF10E000E017
:102550006BCF9111089581568A5108F480528558A5
:102560000895FB01DC0102C001900D9241505040E2
:10257000D8F70895FB01DC0101900D920020E1F7EE
:062580000895F894FFCF5E
:1025860000007004800000000000F1015101890183
:102596003D02BA019801AC0100000000E104B50457
:1025A6000F0586014901A2049304564D4450565F17
:1025B600317C315F564D4450560D0A004552524FFC
:1025C6005220524541442100546F74616C3A2000F8
:1025D6004374726C20427974653A200072427974B1
:1025E600653A200072496E74203A2000724C6F6E74
:1025F600673A200072537472203A20004578746559
:10260600726E616C20454550524F4D206D656D6F61
:1026160072792E2E2E00564D4450455F003A323ABE
:0A262600007C005F564D4450450053
:020000023000CC
:10E000000D9489F10D94B2F10D94B2F10D94B2F129
:10E010000D94B2F10D94B2F10D94B2F10D94B2F1F0
:10E020000D94B2F10D94B2F10D94B2F10D94B2F1E0
:10E030000D94B2F10D94B2F10D94B2F10D94B2F1D0
:10E040000D94B2F10D94B2F10D94B2F10D94B2F1C0
:10E050000D94B2F10D94B2F10D94B2F10D94B2F1B0
:10E060000D94B2F10D94B2F10D94B2F10D94B2F1A0
:10E070000D94B2F10D94B2F10D94B2F10D94B2F190
:10E080000D94B2F10D94B2F10D94B2F10D94B2F180
:10E090000D94B2F10D94B2F10D94B2F10D94B2F170
:10E0A0000D94B2F10D94B2F10D94B2F10D94B2F160
:10E0B0000D94B2F10D94B2F10D94B2F10D94B2F150
:10E0C0000D94B2F10D94B2F10D94B2F10D94B2F140
:10E0D0000D94B2F10D94B2F10D94B2F10D94B2F130
:10E0E0000D94B2F141546D656761323536300041AF
:10E0F000726475696E6F206578706C6F72657220DE
:10E1000073746B3530305632206279204D4C530099
:10E11000426F6F746C6F616465723E004875683F52
:10E1200000436F6D70696C6564206F6E203D200048
:10E130004350552054797065202020203D20005FF9
:10E140005F4156525F415243485F5F3D2000415658
:10E1500052204C696243205665723D20004743437C
:10E160002056657273696F6E203D20004350552024
:10E1700049442020202020203D20004C6F7720663D
:10E18000757365202020203D20004869676820665F
:10E190007573652020203D200045787420667573D6
:10E1A00065202020203D20004C6F636B2066757336
:10E1B000652020203D20004D617220203720323024
:10E1C000313300312E362E3800342E332E350056A2
:10E1D00023202020414444522020206F7020636F70
:10E1E00064652020202020696E73747275637469E1
:10E1F0006F6E2061646472202020496E74657272B3
:10E20000757074006E6F20766563746F7200726A49
:10E210006D702020006A6D70200057686174207056
:10E220006F72743A00506F7274206E6F7420737541
:10E2300070706F72746564004D7573742062652030
:10E2400061206C6574746572002000577269747483
:10E25000696E672045450052656164696E672045B7
:10E26000450045452065727220636E743D00504F35
:10E27000525400303D5A65726F2061646472003FF1
:10E280003D43505520737461747300403D454550C3
:10E29000524F4D207465737400423D426C696E6B41
:10E2A000204C454400453D44756D70204545505215
:10E2B0004F4D00463D44756D7020464C415348001B
:10E2C000483D48656C70004C3D4C69737420492F83
:10E2D0004F20506F72747300513D51756974005234
:10E2E0003D44756D702052414D00563D73686F7707
:10E2F00020696E7465727275707420566563746FF0
:10E30000727300593D506F727420626C696E6B00BD
:10E310002A0011241FBECFEFD1E2DEBFCDBF01E046
:10E320000CBF12E0A0E0B2E0EEE1FDEF03E00BBFB6
:10E3300002C007900D92A030B107D9F712E0A0E01B
:10E34000B2E001C01D92AE30B107E1F70F9460F367
:10E350000D948DFE01E20EBF0FEF0DBF11241FBE05
:10E360000D9460F30D9400F020E030E040ED57E0B4
:10E3700005C0FA013197F1F72F5F3F4F2817390792
:10E38000C0F308959C01260F311DC901A0E0B0E043
:10E390002F5F3F4FABBFFC018791882361F08093D3
:10E3A000C6008091C00086FFFCCF8091C0008064D1
:10E3B0008093C000EACF08958DE08093C6008091DD
:10E3C000C00086FFFCCF8091C00080648093C000B5
:10E3D0008AE08093C6008091C00086FFFCCF8091C8
:10E3E000C00080648093C00008950F94C2F10F9420
:10E3F000DCF10895FC019081992359F09093C600B7
:10E400008091C00086FFFCCF8091C0008064809323
:10E41000C0003196992379F70895282F982F929567
:10E420009F70892F805D8A3308F0895F8093C600D2
:10E430008091C00086FFFCCF8091C00080648093F3
:10E44000C000822F8F70982F905D9A3308F0995FEB
:10E450009093C6008091C00086FFFCCF8091C000E1
:10E4600080648093C00008959C01FB01853691056E
:10E470001CF46330710594F0C90164E670E00F94F8
:10E480002EFE605D7F4F6093C6008091C00086FFC6
:10E49000FCCF8091C00080648093C0002B30310598
:10E4A00014F43297B4F0C90164E670E00F942EFEC4
:10E4B0006AE070E00F942EFE605D7F4F6093C600AF
:10E4C0008091C00086FFFCCF8091C0008064809363
:10E4D000C000C9016AE070E00F942EFEC0968093E0
:10E4E000C6008091C00086FFFCCF8091C000806490
:10E4F0008093C00008951F93182F8EE692EE60E07F
:10E500000F94C2F11093C6008091C00086FFFCCF2B
:10E510008091C00080648093C0000F94DCF11F9153
:10E5200008952F923F924F925F926F927F928F92B7
:10E530009F92AF92BF92CF92DF92EF92FF920F9392
:10E540001F93DF93CF93CDB7DEB762970FB6F894E2
:10E55000DEBF0FBECDBF382E622ECA01DB015C01CB
:10E560006D01772420E2222E2E010894411C511CBB
:10E570008BC081E0A81680E0B80681E0C80680E084
:10E58000D80628F0C601AA27BB270F940DF2BB2797
:10E59000AD2D9C2D8B2D0F940DF28A2D0F940DF225
:10E5A0002092C6008091C00086FFFCCF8091C00001
:10E5B00080648093C0009DE29093C6008091C0006B
:10E5C00086FFFCCF8091C00080648093C0002092C1
:10E5D000C6008091C00086FFFCCF8091C00080649F
:10E5E0008093C00019828601750188249924A1E0D6
:10E5F0003A1651F03A1620F0B2E03B1661F409C029
:10E600000BBFF701779007C0C7010F9477FE782EF4
:10E6100002C0F7017080872D0F940DF22092C60082
:10E620008091C00086FFFCCF8091C0008064809301
:10E63000C000872D8052F401EF70F0708F3520F408
:10E64000E40DF51D708204C0E40DF51D8EE280839B
:10E650000894E11CF11C011D111D0894811C911CE2
:10E6600090E18916910409F0C2CF80E190E0A0E02A
:10E67000B0E0A80EB91ECA1EDB1E198AC2010F9493
:10E68000FAF10F94DCF16A94662009F072CF629679
:10E690000FB6F894DEBF0FBECDBFCF91DF911F91B3
:10E6A0000F91FF90EF90DF90CF90BF90AF909F9031
:10E6B0008F907F906F905F904F903F902F90089534
:10E6C0002F923F924F925F926F927F928F929F9282
:10E6D000AF92BF92CF92DF92EF92FF920F931F9370
:10E6E000DF93CF93CDB7DEB7CD53D1400FB6F894BB
:10E6F000DEBF0FBECDBF01E20EBF0FEF0DBF94B75F
:10E70000F894A89514BE80916000886180936000A1
:10E7100010926000789493FF05C0E0910002F091A0
:10E7200001021995279A2F9A8091C00082608093E8
:10E73000C00080E18093C40088E18093C1000000A4
:10E74000EE24FF24870144E0A42EB12CCC24DD2448
:10E7500024C0C5010197F1F70894E11CF11C011DCB
:10E76000111D21E2E2162EE4F20620E0020720E06D
:10E77000120718F031E0C32ED12CC801B70127ECE5
:10E780003BE140E050E00F9441FE611571058105C9
:10E79000910519F485B1805885B98091C00087FD35
:10E7A00003C0C114D104A9F2A6014F5F5F4FC25E3E
:10E7B000DE4F59834883CE51D140C25EDE4F8881FF
:10E7C0009981CE51D140019711F00D9410FEC05D9A
:10E7D000DE4F19821882C053D14060E0C15DDE4F28
:10E7E0001882CF52D14088249924C35DDE4F19820C
:10E7F0001882CD52D140C05EDE4F188219821A8233
:10E800001B82C052D140CE5CDE4F188219821A8220
:10E810001B82C253D140EE24FF2487010BBFF701B6
:10E8200007911691C45CDE4F19830883CC53D14005
:10E830000D940BFEC25EDE4F28813981CE51D1404E
:10E840002130310509F52091C600C25EDE4F1982E4
:10E850001882CE51D14022C02F5F3F4F4F4F5F4FA4
:10E86000213082E138078AE7480780E0580780F0C6
:10E87000C45CDE4FE881F981CC53D140EF5FFF4F9C
:10E8800019F0EE27FF27099420E030E040E050E047
:10E890008091C00087FFE0CF2091C600C35DDE4FAE
:10E8A00048815981CD52D1404F5F5F4FC35DDE4FEC
:10E8B00059834883CD52D140213209F063C64A3092
:10E8C000510508F05FC60894811C911C53E0851621
:10E8D000910409F059C600E010E018C081E280936D
:10E8E000C6008091C00086FFFCCF8091C00080648C
:10E8F0008093C0002F5F3F4F2931310579F70F9486
:10E90000DCF10F5F1F4F0530110519F020E030E0FA
:10E91000E5CF10920A0210920B0210920C02109294
:10E920000D02109206021092070210920802109235
:10E930000902109202021092030210920402109235
:10E9400005028FEE90EE60E00F94F5F180E191EE1C
:10E9500060E00F94C2F18091C00087FFFCCF9091DE
:10E96000C600903608F09F759032B8F09093C600BC
:10E970008091C00086FFFCCF8091C00080648093AE
:10E98000C000A0E2A093C6008091C00086FFFCCF2B
:10E990008091C00080648093C000983409F4D7C18E
:10E9A0009934B8F4923409F459C1933458F490333B
:10E9B00019F1903308F4E3C59F33A1F1903409F0C5
:10E9C000DEC5BDC0953409F470C1963409F0D7C5D1
:10E9D00098C1923509F42BC2933538F49C3409F46C
:10E9E000F5C1913509F0CBC518C2963509F445C279
:10E9F000993509F0C4C567C483E792EE62E00F94CD
:10EA0000F5F110920602109207021092080210927D
:10EA1000090210920A0210920B0210920C0210923C
:10EA20000D0213C18FE792EE62E00F94F5F18FEEC5
:10EA300090EE60E00F94F5F181E291EE60E00F94CA
:10EA4000C2F187EB91EE60E00F94F5F180E391EE77
:10EA500060E00F94C2F184EE90EE60E00F94F5F167
:10EA60008FE391EE60E00F94C2F186E090E061E008
:10EA700070E00F9434F20F94DCF18DE591EE60E0DC
:10EA80000F94C2F189EC91EE60E00F94F5F18EE401
:10EA900091EE60E00F94C2F183EC91EE60E00F9490
:10EAA000F5F18CE691EE60E00F94C2F18EE10F94E7
:10EAB0000DF288E90F940DF281E00F940DF20F949E
:10EAC000DCF18BE791EE60E00F94C2F119E0E0E039
:10EAD000F0E010935700E4918E2F0F940DF20F94F5
:10EAE000DCF18AE891EE60E00F94C2F1E3E0F0E03F
:10EAF00010935700E4918E2F0F940DF20F94DCF1D8
:10EB000089E991EE60E00F94C2F1E2E0F0E0109349
:10EB10005700E4918E2F0F940DF20F94DCF188EAE8
:10EB200091EE60E00F94C2F1E1E0F0E01093570045
:10EB30001491812F0F940DF20F94DCF107CF8BE825
:10EB400092EE62E00F94F5F18BE492EE60E00F94A8
:10EB5000F5F10F94DCF100E010E019C0C8016F2D51
:10EB60000F947FFEFF2031F489E492EE60E00F9471
:10EB7000C2F10BC0F092C6008091C00086FFFCCFAE
:10EB80008091C00080648093C0000F5F1F4FC80158
:10EB900081519F41A0E0B0E0ABBFFC01F790BAE229
:10EBA000FB1621F0E2E000301E07C1F60F94DCF105
:10EBB0000F94DCF187E592EE60E00F94F5F10F948D
:10EBC000DCF1CC24DD2400E010E01EC0C8010F946D
:10EBD00077FEF82E882331F489E492EE60E00F94FA
:10EBE000C2F10BC08093C6008091C00086FFFCCFAD
:10EBF0008091C00080648093C000FE1419F00894D6
:10EC0000C11CD11C0F5F1F4FC80181519F41A0E063
:10EC1000B0E0ABBFFC01E790FAE2EF1621F022E092
:10EC20000030120799F60F94DCF10F94DCF182E6C4
:10EC300092EE60E00F94C2F1C60161E070E00F94C3
:10EC400034F20F94DCF10F94DCF110920202109276
:10EC50000302109204021092050278CE89E992EE26
:10EC600062E00F94F5F1279A2F9A16C02F9880E052
:10EC700090E0E0EDF7E03197F1F7019684369105E9
:10EC8000C1F72F9A80E090E0E0EDF7E03197F1F7DF
:10EC9000019684369105C1F78091C00087FFE6CFC9
:10ECA0008091C00087FFFCCF64C485EA92EE62E0E9
:10ECB0000F94F5F140910202509103026091040219
:10ECC0007091050281E020E10F9491F2809102029F
:10ECD00090910302A0910402B091050280509F4FD1
:10ECE000AF4FBF4F8093020290930302A0930402A0
:10ECF000B093050280509041A040B04008F426CE69
:10ED0000A4CF83EB92EE62E00F94F5F140910602FE
:10ED100050910702609108027091090280E020E1A1
:10ED20000F9491F28091060290910702A09108023F
:10ED3000B091090280509F4FAF4FBF4F80930602A2
:10ED400090930702A0930802B0930902FFCD80ECD4
:10ED500092EE62E00F94F5F183E792EE60E00F949B
:10ED6000F5F18FE792EE60E00F94F5F18BE892EE0B
:10ED700060E00F94F5F189E992EE60E00F94F5F10F
:10ED800085EA92EE60E00F94F5F183EB92EE60E09D
:10ED90000F94F5F180EC92EE60E00F94F5F187ECC2
:10EDA00092EE60E00F94F5F188ED92EE60E00F9442
:10EDB000F5F18FED92EE60E00F94F5F18AEE92EEB0
:10EDC00060E00F94F5F183E093EEBDCD87EC92EE19
:10EDD00062E00F94F5F181E40F947BF282E40F94EA
:10EDE0007BF283E40F947BF284E40F947BF285E45E
:10EDF0000F947BF286E40F947BF287E40F947BF20E
:10EE000088E40F947BF28AE40F947BF28BE40F94F6
:10EE10007BF28CE40F947BF299CD88ED92EE62E068
:10EE20000F94F5F1772473948824992409C48FED05
:10EE300092EE62E00F94F5F140910A0250910B02BC
:10EE400060910C0270910D0282E020E10F9491F22A
:10EE500080910A0290910B02A0910C02B0910D02D8
:10EE600080509F4FAF4FBF4F80930A0290930B0289
:10EE7000A0930C02B0930D0269CD8AEE92EE62E08F
:10EE80000F94F5F184EE90EE60E00F94F5F18FECC5
:10EE900091EE60E00F94F5F1662477244301CC5D98
:10EEA000DE4F19821882C452D140D401C301B695F5
:10EEB000A79597958795CA5DDE4F88839983AA8326
:10EEC000BB83C652D140CC5DDE4FA881B981C4520C
:10EED000D1401196CC5DDE4FB983A883C452D14096
:10EEE000CD0162E070E00F9434F2B0E2B093C6005E
:10EEF0008091C00086FFFCCF8091C0008064809329
:10EF0000C000EDE2E093C6008091C00086FFFCCF18
:10EF10008091C00080648093C000F0E2F093C6004E
:10EF20008091C00086FFFCCF8091C00080648093F8
:10EF3000C000CA5DDE4FE880F9800A811B81C6529D
:10EF4000D140BB27A12F902F8F2D0F940DF2CA5DBA
:10EF5000DE4F8881C652D1400F940DF2B0E2FB2EF5
:10EF6000F092C6008091C00086FFFCCF8091C00067
:10EF700080648093C0000DE30093C6008091C000C0
:10EF800086FFFCCF8091C00080648093C00010E2B7
:10EF90001093C6008091C00086FFFCCF8091C00016
:10EFA00080648093C0008BBEF3012791C65DDE4F65
:10EFB0002883CA52D140A22EBB24CC24DD2408943D
:10EFC000611C711C811C911C8BBEF3018791282E42
:10EFD0003324442455240894611C711C811C911C09
:10EFE0008BBEF3013791C55DDE4F3883CB52D140E4
:10EFF0000894611C711C811C911C8BBEF30147910C
:10F00000C45DDE4F4883CC52D140ADEFEA2EAFEF66
:10F01000FA2EAFEF0A2FAFEF1A2F6E0C7F1C801E57
:10F02000911E142D032DF22CEE24EA0CFB1C0C1D5A
:10F030001D1D0F940DF220E22093C6008091C000A8
:10F0400086FFFCCF8091C00080648093C000C65DC5
:10F05000DE4F8881CA52D1400F940DF230E23093D6
:10F06000C6008091C00086FFFCCF8091C000806404
:10F070008093C000C45DDE4F8881CC52D1400F9494
:10F080000DF240E24093C6008091C00086FFFCCFA5
:10F090008091C00080648093C000C55DDE4F888190
:10F0A000CB52D1400F940DF250E25093C6008091A4
:10F0B000C00086FFFCCF8091C00080648093C000B8
:10F0C0008FEFE8168FEFF80680E0080780E018075A
:10F0D00031F484E092EE60E00F94C2F1DFC0D80119
:10F0E000C7018070907CA070B0708050904CA040A0
:10F0F000B040D1F52FEF3FE340E050E0E222F322B1
:10F1000004231523CA5DDE4FA880B980CA80DB8046
:10F11000C652D140AE0CBF1CC01ED11EAA0CBB1CD7
:10F12000CC1CDD1C8EE092EE60E00F94C2F1BB2798
:10F13000A12F902F8F2D0F940DF28E2D0F940DF285
:10F1400030E23093C6008091C00086FFFCCF8091F2
:10F15000C00080648093C0004EE34093C60080915D
:10F16000C00086FFFCCF87C08EE09EEFA0E0B0E03D
:10F17000E822F9220A231B239CE0E91694E9F90608
:10F1800090E0090790E0190709F088C0C45DDE4FE0
:10F19000A881CC52D140EA2EFF2400E010E0102FCD
:10F1A0000F2DFE2CEE24C55DDE4FB881CB52D14031
:10F1B000EB0EF11C011D111DD601C501817090706F
:10F1C000A070B070DC0199278827E80EF91E0A1F8D
:10F1D0001B1F20EF30E040E050E0A222B322C42207
:10F1E000D52241E1AA0CBB1CCC1CDD1C4A95D1F7F1
:10F1F000EA0CFB1C0C1D1D1D81E090E0A0E0B0E0BE
:10F20000282239224A225B2235E1220C331C441C7D
:10F21000551C3A95D1F7E20CF31C041D151D57013E
:10F220006801AA0CBB1CCC1CDD1C85E192EE60E0E1
:10F230000F94C2F1C801AA27BB270F940DF2BB2778
:10F24000A12F902F8F2D0F940DF28E2D0F940DF274
:10F2500090E29093C6008091C00086FFFCCF809121
:10F26000C00080648093C000AEE3A093C60080918C
:10F27000C00086FFFCCF8091C00080648093C000F6
:10F28000C601AA27BB270F940DF2BB27AD2D9C2DDD
:10F290008B2D0F940DF28A2D0F940DF20F94DCF14B
:10F2A000CC5DDE4FE881F981C452D140F99709F471
:10F2B0004DCBF4E0EF2EF12C012D112D6E0C7F1CA7
:10F2C000801E911EF2CD83E093EE62E00F94F5F183
:10F2D0008AE192EE60E00F94C2F18091C00087FF56
:10F2E000FCCF1091C6001F751093C6008091C0001E
:10F2F00086FFFCCF8091C00080648093C0000F9493
:10F30000DCF1812F81548A3108F036C1163409F4BA
:10F3100095C0173490F4133409F44EC0143430F40B
:10F320001134F1F0123409F01DC130C0143409F465
:10F3300059C0153409F016C16BC01A3409F4C4C0A1
:10F340001B3438F4173409F48FC0183409F00AC19B
:10F35000A1C01B3409F4D2C01C3409F003C1E8C0B9
:10F360008FEF81B90DC082B1809582B980E090E0C5
:10F37000E0EDF7E03197F1F70196883C9105C1F790
:10F380008091C00087FFEFCF12B8EFC08FEF84B934
:10F390000DC085B1809585B980E090E0E0EDF7E0A3
:10F3A0003197F1F70196883C9105C1F78091C00033
:10F3B00087FFEFCF15B8D9C08FEF87B90DC088B1DF
:10F3C000809588B980E090E0E0EDF7E03197F1F7C3
:10F3D0000196883C9105C1F78091C00087FFEFCF6F
:10F3E00018B8C3C08FEF8AB90DC08BB180958BB9A7
:10F3F00080E090E0E0EDF7E03197F1F70196883C8E
:10F400009105C1F78091C00087FFEFCF1BB8ADC059
:10F410008FEF8DB90DC08EB180958EB980E090E0F0
:10F42000E0EDF7E03197F1F70196883C9105C1F7DF
:10F430008091C00087FFEFCF1EB897C08FEF80BBD1
:10F440000DC081B3809581BB80E090E0E0EDF7E0F6
:10F450003197F1F70196883C9105C1F78091C00082
:10F4600087FFEFCF11BA81C08FEF83BB0DC084B38C
:10F47000809584BB80E090E0E0EDF7E03197F1F714
:10F480000196883C9105C1F78091C00087FFEFCFBE
:10F4900014BA6BC08FEF809301010FC080910201FD
:10F4A00080958093020180E090E0E0EDF7E03197F5
:10F4B000F1F70196883C9105C1F78091C00087FF64
:10F4C000EDCF1092020151C08FEF809304010FC065
:10F4D0008091050180958093050180E090E0E0ED4A
:10F4E000F7E03197F1F70196883C9105C1F78091DB
:10F4F000C00087FFEDCF1092050137C08FEF8093DA
:10F5000007010FC08091080180958093080180E079
:10F5100090E0E0EDF7E03197F1F70196883C910536
:10F52000C1F78091C00087FFEDCF109208011DC088
:10F530008FEF80930A010FC080910B01809580931B
:10F540000B0180E090E0E0EDF7E03197F1F70196F4
:10F55000883C9105C1F78091C00087FFEDCF1092E4
:10F560000B0103C085E292EEEEC98091C00087FFD7
:10F57000FCCF8091C600EAC988E392EEE4C98CE131
:10F5800091EEE1C988249924933011F1943028F444
:10F59000913089F09230B8F408C0953061F195301F
:10F5A000F0F0963009F048C043C02B3109F042C951
:10F5B00091E06BE13FC96227C15DDE4F2883CF52E6
:10F5C000D14092E037C9B22FA0E0622793E032C960
:10F5D000822F90E0A82BB92B622794E02BC92E3004
:10F5E00009F039C3622795E0C05DDE4F19821882A9
:10F5F000C053D1401FC9E1E0F0E0EC0FFD1FC05D3A
:10F60000DE4F08811981C053D140E00FF11F2083E4
:10F610000F5F1F4FC05DDE4F19830883C053D14079
:10F6200062270A171B0709F005C9D80196E002C92D
:10F63000261709F010C303C0973009F0FBC87724E0
:10F640009981933109F412C19431C8F4963009F4C8
:10F65000D8C0973050F4923009F406C1933009F4C1
:10F660006DC0913009F059C253C0913109F477C08F
:10F67000923108F0BBC0903109F04FC2F5C098310B
:10F6800009F487C0993150F4953109F4EFC09531F0
:10F6900008F4C6C1963109F040C2C2C19A3109F4DA
:10F6A0006CC09A3108F491C09B3109F45BC09D3164
:10F6B00009F033C29D81903359F48F81882311F46E
:10F6C0009EE11CC0813011F091E018C098E916C08D
:10F6D000892F807591F0903539F4E0E0F0E089E011
:10F6E0008093570094910AC0983539F4E3E0F0E034
:10F6F00089E080935700949101C090E01A821B82A8
:10F700008D818C831D829E831F8227E030E009C299
:10F710001A8288E08B8381E48C8386E58D8382E581
:10F720008E8389E48F8383E5888780E589878FE5E9
:10F730008A8782E38B872BE030E0F3C18A818139AD
:10F7400041F0823941F0803911F48FE005C080E04A
:10F7500003C082E001C08AE01A828B8344C0772410
:10F76000739482C08D81882311F48EE12CC0813086
:10F7700011F081E028C088E926C01A82E1E0F0E0BB
:10F7800089E08093570084918B831C8224E030E0D1
:10F79000C8C18B81803589F48C81883039F4E2E0EE
:10F7A000F0E089E08093570084910DC0E0E0F0E044
:10F7B00089E080935700849106C0E3E0F0E089E09F
:10F7C0008093570084911A82DFCF8D81836C99E0FA
:10F7D000E1E0F0E0082E90935700E89507B600FCB2
:10F7E000FDCF1A821B8223E030E09BC180EC8A832C
:10F7F000CE5CDE4F188219821A821B82C253D1401E
:10F800008EC18A8190E0A0E0B0E0582F44273327D2
:10F8100022278B8190E0A0E0B0E0DC0199278827C7
:10F82000282B392B4A2B5B2B8D8190E0A0E0B0E098
:10F83000282B392B4A2B5B2B8C8190E0A0E0B0E089
:10F84000BA2FA92F982F8827282B392B4A2B5B2BCF
:10F85000220F331F441F551FC05EDE4F288339839C
:10F860004A835B83C052D1401A8259C13A81C95C34
:10F87000DE4F3883C753D140CA5CDE4F1882C6536F
:10F88000D1408B81C82EDD24CA5CDE4F488159816E
:10F89000C653D140C42AD52A933109F082C0CE5C28
:10F8A000DE4F88819981AA81BB81C253D1408050AB
:10F8B000904CA340B04030F583E0CE5CDE4FE88052
:10F8C000F9800A811B81C253D140F70100935B008C
:10F8D00080935700E89507B600FCFDCFCE5CDE4F65
:10F8E000088119812A813B81C253D14000501F4FAA
:10F8F0002F4F3F4FCE5CDE4F088319832A833B8313
:10F90000C253D140C05EDE4F488159816A817B81FC
:10F91000C052D140DE011B9631E08C9111962C91A2
:10F9200011971296C75CDE4F2883C953D140C85C3B
:10F93000DE4F1882C853D14090E0C85CDE4FE881AA
:10F94000F981C853D1408E2B9F2B0C01FA01609393
:10F950005B0030935700E89511244E5F5F4F6F4F67
:10F960007F4F0EEFE02E0FEFF02ECE0CDF1CC114F8
:10F97000D10499F685E0C05EDE4F088119812A81A5
:10F980003B81C052D140F80120935B008093570027
:10F99000E89507B600FCFDCF81E180935700E8951C
:10F9A00035C0C05EDE4F88819981AA81BB81C0527B
:10F9B000D140B695A795979587957C018601ABE0D8
:10F9C000AA2EB12CAC0EBD1E0BC0D5016D915D01F0
:10F9D000C7010F947FFE0894E11CF11C01501040F8
:10F9E0000115110591F7A60160E070E0440F551F65
:10F9F000661F771FC05EDE4FE880F9800A811B8199
:10FA0000C052D1404E0D5F1D601F711F1A82C05E33
:10FA1000DE4F488359836A837B83C052D1407FC0C5
:10FA2000FA80C55CDE4FF882CB53D140C65CDE4F16
:10FA30001882CA53D1408B81C82EDD24C65CDE4FAC
:10FA400008811981CA53D140C02AD12A1A828981DA
:10FA5000BE016D5F7F4F843121F59601C05EDE4FA0
:10FA6000E880F9800A811B81C052D1400BBFF701A9
:10FA700087919691DB018C9311969C936E5F7F4FDB
:10FA8000D801C7010296A11DB11DC05EDE4F88835B
:10FA90009983AA83BB83C052D14022503040F1F6F3
:10FAA00036C0C05EDE4F288139814A815B81C052F9
:10FAB000D1400894C108D108760100E010E0089414
:10FAC000C11CD11C0894E11CF11C011D111DE20E8A
:10FAD000F31E041F151F21BDBB27A52F942F832FB5
:10FAE00082BD2F5F3F4F4F4F5F4FF89A80B5DB01CC
:10FAF0008D93BD012E153F054007510761F7C05E8C
:10FB0000DE4F288339834A835B83C052D1409601FC
:10FB10002D5F3F4FFB01108204C080EC8A8322E0FE
:10FB200030E08BE18093C6008091C00086FFFCCF5F
:10FB30008091C00080648093C000C15DDE4FF88179
:10FB4000CF52D140F093C6008091C00086FFFCCF19
:10FB50008091C00080648093C000432F3093C60022
:10FB60008091C00086FFFCCF8091C00080648093AC
:10FB7000C000922F2093C6008091C00086FFFCCF6A
:10FB80008091C00080648093C0008EE08093C600A6
:10FB90008091C00086FFFCCF8091C000806480937C
:10FBA000C00065E1C15DDE4FE880CF52D1406E25D7
:10FBB00069276427FE01319610C090819093C6009A
:10FBC0008091C00086FFFCCF31968091C000806498
:10FBD0008093C0006927215030402115310569F715
:10FBE0006093C6008091C00086FFFCCF8091C0006A
:10FBF00080648093C00085B1805885B9772081F4F6
:10FC0000C15DDE4F0881CF52D1400F5FC15DDE4F35
:10FC10000883CF52D14090E0A0E0B0E00D941AF4F8
:10FC200027982F9880E090E020ED37E0F901319798
:10FC3000F1F7019684369105C9F700008091C00064
:10FC40008D7F8093C00081E180935700E895EE2777
:10FC5000FF270994FFCF90E00D941AF497FB092E2B
:10FC600007260AD077FD04D02ED006D000201AF443
:10FC7000709561957F4F0895F6F7909581959F4F08
:10FC80000895A1E21A2EAA1BBB1BFD010DC0AA1FDD
:10FC9000BB1FEE1FFF1FA217B307E407F50720F0F5
:10FCA000A21BB30BE40BF50B661F771F881F991F70
:10FCB0001A9469F760957095809590959B01AC01B9
:10FCC000BD01CF010895AA1BBB1B51E107C0AA1FAC
:10FCD000BB1FA617B70710F0A61BB70B881F991FED
:10FCE0005A95A9F780959095BC01CD010895F99991
:10FCF000FECF92BD81BDF89A992780B50895262F31
:10FD0000F999FECF1FBA92BD81BD20BD0FB6F89400
:0EFD1000FA9AF99A0FBE01960895F894FFCF63
:040000033000E000E9
:00000001FF