:10000000E8C0000014C1000012C1000010C10000CF
:100010000EC100000CC100000AC1000008C10000B0
:1000200006C1000004C1000002C1000000C10000C0
:10003000FEC00000FCC00000FAC00000F8C00000D4
:10004000F6C00000F4C00000F2C00000F0C00000E4
:10005000EEC00000ECC00000EAC00000D2C3000007
:10006000E6C0000098C300006DC30000E0C00000BF
:10007000DEC00000DCC00000DAC00000D8C0000014
:10008000D6C00000D4C00000D2C00000D0C0000024
:10009000CEC00000CCC00000CAC00000FCC30000FD
:1000A000C6C00000C4C00000C2C00000C0C0000044
:1000B000BEC00000BCC00000BAC00000B8C0000054
:1000C000B6C00000B4C00000B2C00000B0C0000064
:1000D000AEC00000ACC00000AAC00000A8C0000074
:1000E000A6C0000000002200250028002B002E00E2
:1000F0003100340002010000050108010B01050573
:100100000505070508080808020202020A0A08088D
:1001100004040404010101010101010103030303BB
:1001200003030303040707070C0C0C0C0C0C0C0C4A
:100130000202020206060606060606060B0B0B0B5B
:100140000B0B0B0B01021020200808102040102080
:10015000408002010201080402010102040810208B
:100160004080804020100804020180040201804089
:1001700020100804020108040201010204081020F2
:100180004080010204081020408000000A0B020990
:100190000C0D0E0807030401000000000000000021
:1001A000000000000000000000000000000000004F
:1001B000000000000000121110000000000000000C
:1001C000000000000000000000000000000000002F
:1001D0006A0511241FBECFEFD1E2DEBFCDBF00E024
:1001E0000CBF23E0A0E2B2E001C01D92A434B2072C
:1001F000E1F712E0A0E0B2E0E8EFFCE000E00BBFC6
:1002000002C007900D92A032B107D9F710E0C9EEF5
:10021000D0E000E005C021970109802FFE0162D5E2
:10022000C83ED10780E00807B1F79DD463C5E8CE8A
:10023000AF92BF92CF92DF92EF92FF920F931F93F4
:10024000CF93DF936C017B018B01040F151FEB0132
:100250005E01AE18BF08C017D10759F06991D601E9
:10026000ED91FC910190F081E02DC6011995892B4B
:1002700079F7C501DF91CF911F910F91FF90EF901A
:10028000DF90CF90BF90AF900895FC01538D448DC7
:10029000252F30E0842F90E0821B930B541710F031
:1002A000CF96089501970895FC01918D828D98173E
:1002B00061F0A28DAE0FBF2FB11D5D968C91928D16
:1002C0009F5F9F73928F90E008958FEF9FEF089547
:1002D000FC01918D828D981731F0828DE80FF11D10
:1002E000858D90E008958FEF9FEF0895FC01918D2B
:1002F000228D892F90E0805C9F4F821B91098F7324
:10030000992708958AE992E0F1DF21E0892B09F429
:1003100020E0822F0895FC01A48DA80FB92FB11DF4
:10032000A35ABF4F2C91848D90E001968F7399272B
:10033000848FA689B7892C93A089B1898C91837009
:1003400080648C93938D848D981306C00288F38902
:10035000E02D80818F7D80830895EF92FF920F932F
:100360001F93CF93DF93EC0181E0888F9B8D8C8D61
:1003700098131AC0E889F989808185FF15C09FB755
:10038000F894EE89FF896083E889F9898081837018
:10039000806480839FBF81E090E0DF91CF911F91C7
:1003A0000F91FF90EF900895F62E0B8D10E00F5FE8
:1003B0001F4F0F731127E02E8C8D8E110BC00FB6BF
:1003C00007FCFACFE889F989808185FFF5CFCE0156
:1003D000A2DFF2CFEB8DEC0FFD2FF11DE35AFF4FA3
:1003E000F0829FB7F8940B8FEA89FB898081806245
:1003F000D0CFCF93DF93EC01888D8823B1F0AA8909
:10040000BB89E889F9898C9185FD03C0808186FDCF
:100410000CC00FB607FCF7CF8C9185FFF2CF80811F
:1004200085FFEDCFCE0177DFEACFDF91CF91089541
:1004300080E090E0892B21F065DF81110E940000AF
:1004400080E090E0892B49F080E090E0892B29F052
:100450000E94000081110E94000080E090E0892B42
:1004600049F080E090E0892B29F00E940000811182
:100470000E94000080E090E0892B49F080E090E04D
:10048000892B29F00E94000081110C94000008952E
:10049000282F30E0F901E657FE4F9491F901EC5B0B
:1004A000FE4F449122503F4FF9012491222309F439
:1004B00034C0992309F191509231F0F4E92FF0E022
:1004C0008827EB59FD4F8F4F0DC496029A02770291
:1004D0008E0292027C029D02A302A702AD02B1022B
:1004E000B502BB02BF027C02C302C902CD028091E9
:1004F00080008F7780938000E22FF0E0EE0FFF1FE7
:10050000EC51FF4FA591B4918FB7F894EC91611124
:1005100048C040954E234C938FBF08958091800032
:100520008F7DE8CF80918000877FE4CF84B58F777F
:1005300084BDE2CF84B58F7DFBCF8091B0008F77F3
:100540008093B000D9CF8091B0008F7DF9CF80919A
:1005500090008F7780939000CFCF809190008F7D17
:10056000F9CF80919000877FF5CF8091A0008F77A1
:100570008093A000C1CF8091A0008F7DF9CF8091A2
:10058000A000877FF5CF809120018F778093200195
:10059000B3CF809120018F7DF9CF80912001877F9B
:1005A000F5CF4E2BB8CF20914702260F3327331FAC
:1005B00021323105ECF420916B02FC0190E080E0E7
:1005C000243069F082E00895A09147022191AC01A6
:1005D000495D5D4FA40FB52FB11D2C930196861771
:1005E00098F380914702680F6093470280E0089576
:1005F00081E0089508958FEF9FEF08958FEF9FEFAB
:1006000008958091200290E0919581959109089537
:10061000CF93DF93CB01EA01642FC5DFCE01DF91D9
:10062000CF910895CF93DF931F92CDB7DEB7698343
:1006300061E0CE010196B7DF81E090E00F90DF919D
:10064000CF91089590E080E00895FC010190002092
:10065000E9F73197AF01481B590BBC018AE992E0D9
:10066000E7CD1F93CF93DF9385ED8093BC008091FE
:10067000230290912402A0912502B09126020796B0
:10068000A11DB11D23E0B695A795979587952A954D
:10069000D1F72091BC0024FD03C010926B024EC024
:1006A000409123025091240260912502709126020C
:1006B000452B462B472B69F30097A105B10541F067
:1006C0002AE22A95F1F700C00197A109B109E1CF0B
:1006D00080912202C1E0C0932102882379F1D09158
:1006E000B8001091BA008091BC008A7B8093BC0056
:1006F00060E084E1CDDE60E085E1CADE10926B024D
:10070000C0936D0210926C0261E084E1C1DE61E091
:1007100085E1BEDE8091B9008E7F8093B900809123
:10072000B9008D7F8093B90088E48093B80085E498
:100730008093BC001093BA00D093B800DF91CF91A2
:100740001F9108951F920F920FB60F9211240BB6AE
:100750000F922F933F934F935F936F937F938F935A
:100760009F93AF93BF93EF93FF938AE992E0D3DD1A
:10077000FF91EF91BF91AF919F918F917F916F9179
:100780005F914F913F912F910F900BBE0F900FBE35
:100790000F901F9018951F920F920FB60F92112471
:1007A0000BB60F922F938F939F93EF93FF93E0914C
:1007B000AA02F091AB028081E091B002F091B10207
:1007C00082FD1DC090818091B3028F5F8F73209155
:1007D000B402821741F0E091B302F0E0E656FD4F1B
:1007E000958F8093B302FF91EF919F918F912F91FD
:1007F0000F900BBE0F900FBE0F901F901895808129
:10080000F2CF1F920F920FB60F9211242F933F93A6
:100810008F939F93AF93BF9380919602909197028D
:10082000A0919802B09199023091950223E0230F94
:100830002D3758F50196A11DB11D20939502809387
:10084000960290939702A0939802B0939902809198
:10085000910290919202A0919302B091940201961C
:10086000A11DB11D8093910290939202A0939302D7
:10087000B0939402BF91AF919F918F913F912F912F
:100880000F900FBE0F901F90189526E8230F029629
:10089000A11DB11DD2CF1F920F920FB60F9211243E
:1008A0000BB60F922F933F934F935F936F937F936A
:1008B0008F939F93AF93BF93EF93FF938091B90072
:1008C000887F803609F44CC008F03FC0883209F4B4
:1008D000A6C028F5803109F49AC0C8F4882309F429
:1008E000F6C0883009F493C0FF91EF91BF91AF91AA
:1008F0009F918F917F916F915F914F913F912F9138
:100900000F900BBE0F900FBE0F901F90189588315F
:1009100009F485C0803241F780936A0214C08034A4
:1009200009F49AC040F48033B9F38833E9F6809330
:100930006A0285ECADC0803509F482C0883509F4BF
:1009400093C0883489F68DDECFCF883909F48AC008
:1009500038F5883729F050F4883611F0803721F6C1
:1009600083E080936B021092690255C0883809F4C5
:1009700079C0803919F0803809F0B6CF80916902CA
:10098000803208F06FC0E091690281E08E0F8093A1
:1009900069028091BB00F0E0E75BFD4F80833BC0C4
:1009A000803B39F0D0F4803A09F477C0883A09F0F6
:1009B0009BCF84E080936B02109248021092470212
:1009C000F0E0E0E019958091470281110FC081E0CD
:1009D000809347021092270209C0803C09F4A9CFF6
:1009E000883C09F4A6CF883B09F07ECFE09148020D
:1009F00081E08E0F80934802F0E0E95DFD4F808139
:100A00008093BB00909148028091470229C0809159
:100A100090028093BB0085EC8093BC0065CF9091E1
:100A20008F0280918E02981758F5E0918F0281E035
:100A30008E0F80938F02F0E0E259FD4F8081E9CF65
:100A4000E0918F0281E08E0F80938F028091BB0036
:100A5000F0E0E259FD4F808390918F0280918E02E9
:100A60009817C8F285E8D8CFE0918F0281E08E0F09
:100A700080938F028091BB00F0E0E259FD4F8083AC
:100A800080916D0281115FCF81E080936C0284EAD6
:100A90008093BC0010926B0227CF85EC8093BC0042
:100AA00010926B0280916902803230F4E091690209
:100AB000F0E0E75BFD4F10826091690270E089E42D
:100AC00092E0F0E0E0E01995109269020DCF1092EB
:100AD0006A0239CFEAE9F2E01382128288EE93E0EB
:100AE000A0E0B0E084839583A683B78384E092E09E
:100AF0009183808385EC90E09587848784EC90E0F7
:100B00009787868780EC90E0918B808B81EC90E0DA
:100B1000938B828B82EC90E0958B848B86EC90E0BB
:100B2000978B868B118E128E138E148EE7E3F3E073
:100B300080E5848380E092E0A0E0B0E08083918350
:100B4000A283B38381E0858380E8868380E090E0A0
:100B5000A1E0B0E087839087A187B28782E0838796
:100B600080E184870895CF93DF93CDB7DEB7A19757
:100B70000FB6F894DEBF0FBECDBF789484B5826007
:100B800084BD84B5816084BD85B5826085BD85B531
:100B9000816085BD80916E00816080936E001092AF
:100BA000810080918100826080938100809181002A
:100BB00081608093810080918000816080938000BB
:100BC0008091B10084608093B1008091B000816019
:100BD0008093B00080919100826080939100809119
:100BE000910081608093910080919000816080935A
:100BF00090008091A10082608093A1008091A1006B
:100C000081608093A1008091A00081608093A0000A
:100C10008091210182608093210180912101816076
:100C20008093210180912001816080932001809137
:100C30007A00846080937A0080917A008260809349
:100C40007A0080917A00816080937A0080917A00A6
:100C5000806880937A001092C100E091AA02F0911E
:100C6000AB0282E08083E091A602F091A70210829D
:100C7000E091A802F091A9028FEC80831092B20259
:100C8000E091AE02F091AF0286E08083E091AC0289
:100C9000F091AD02808180618083E091AC02F0919F
:100CA000AD02808188608083E091AC02F091AD025A
:100CB000808180688083E091AC02F091AD028081F8
:100CC0008F7D808382E192E0C0DC19A281E388A35A
:100CD00088E38F8FCE014F96B8DC8DE192E0B5DCD2
:100CE000A7DBFECFEE0FFF1F881F8BBF0790F6918B
:080CF000E02D1994F894FFCFE8
:100CF80000000000AD0118014501F9017601540119
:100D080068014374726C20427974653A000D0A00D8
:00000001FF
